:2000000075817F12010712016C53901F75360C75371875350075440075210075220075232D
:2000200000752400752500752600752700752800752900752A00752B00752C00752D007524
:200040002E00752F0075B00F852FC8852033E5335401F534E5A05401B5340302008930A08F
:200060001A754601D20079207A001201CA794B7A147B407C001201E9020089C2007401B5EC
:20008000460779017A001201CAE5335402F534E5A05402B5340302004530A115D201754629
:2000A0000275350279207A001201CA1200C2020045C2017402B5468D79017A001201CA02F3
:2000C000004590010674007A437B007C4079FFD2947F08E9339293C292D292DFF77F08EA37
:2000E000339293C292D292DFF77F08EB339293C292D292DFF77F08EC339293C292D292DF60
:20010000F7C294C293227FC08F758F04C0B275B2007586FF75B20275804075866075B200D2
:200120007591FF75D10075CAB075CE0A75CC8075D10675CC0175B20075B1FF75B20075C938
:20014000FF75B2007593FFD0B2D08F22C08F758F0475D10675CB8075D1000000E5CB20E016
:20016000FB75D102E5CB85CAF0D08F2222C0E0C0D075E01AD5E0FDD0D0D0E022C0E0C0D0B7
:20018000C0F075F032120195D5F0FAD5E0F4D0F0D0D0D0E022C0E0C0D075E06412016DD598
:2001A000E0FAD0D0D0E022C08F758F04C0D175D106F5D275D1000000E5CB20E0FB75D102BF
:2001C000E5CB85CAF0D0D1D08F22D2947F08E9339293C292D292DFF77F08EA339293C29235
:2001E000D292DFF7C294C293227400E535232393F9A393FAA393FBA393FCD2947F08E933FC
:200200009293C292D292DFF77F08EA339293C292D292DFF77F08EB339293C292D292DFF77C
:200220007F08EC339293C292D292DFF7C294C29322C0E0C0D0C0F0C070C071C072C073C032
:2002400074C075C076C07775570075560075550075540075530075520075510075500075CF
:20026000F040E56833F568E56933F569E56A33F56AE56B33F56BE56C33F56CE56D33F56D02
:20028000E56E33F56EE56F33F56FE55033F550E55133F551E55233F552E55333F553E55491
:2002A00033F554E55533F555E55633F556E55733F557C3E5509560F570E5519561F571E5CE
:2002C000529562F572E5539563F573E5549564F574E5559565F575E5569566F576E557952B
:2002E00067F5774018857757857656857555857454857353857252857151857050B3E55883
:2003000033F558E55933F559E55A33F55AE55B33F55BE55C33F55CE55D33F55DE55E33F523
:200320005EE55F33F55FD5F00302032F020262D077D076D075D074D073D072D071D070D046
:20034000F0D0D0D0E022C0E0C0D0C070C071C072C073C074C075C076C077C078C079C07AC4
:20036000C07BC07C7570007571007572007573007574007575007576007577007578007560
:200380007900757A00757B00757C20EB13FBEA13FAE913F9E813F8502CEC2574F574ED3590
:2003A00075F575EE3576F576EF3577F577E5703578F578E5713579F579E572357AF57AE518
:2003C00073357BF57BC3EC33FCED33FDEE33FEEF33FFE57033F570E57133F571E57233F5F4
:2003E00072E57333F573D57CA2A874A975AA76AB77AC78AD79AE7AAF7BD07CD07BD07AD0DC
:2004000079D078D077D076D075D074D073D072D071D070D0D0D0E022438F0122538FFE2296
:00000001FF
