:2000000075817F12000902004912009212011775360C75371875480075210075220075233A
:2000200000752400752500752600752700752800752900752A00752B00752C00752D007524
:200040002E00752F0075392322852033E5335401F534E5A05401B5340302006630A005D298
:2000600000020066C20075B0108520C8852133E5335402F534E5A05402B5340302008930C2
:20008000A105D209020089C20975B0108521C8020049C08F758F04C0B275B2007586FF753C
:2000A000B202758040758660D0B2D08FC08F758F04C0B275B2007591FF75B2027590307553
:2000C0009100D0B2D08FC08F758F04C0D175D10075CA9075CE0075CC4075D10675CD01D08E
:2000E000D1D08FC08F758F04C0B275B20075B1FFD0B2D08FC08F758F04C0B275B20075C9AC
:20010000FFD0B2D08FC08F758F04C0B275B2007593FFD0B2D08F2222C0E0C0D075E01AD56F
:20012000E0FDD0D0D0E022C0E0C0D0C0F075F032120140D5F0FAD5E0F4D0F0D0D0D0E0220C
:20014000C0E0C0D075E064120118D5E0FAD0D0D0E022C08F758F04C0D175D106F5D275D129
:1D016000000000E5CB20E0FB75D102E5CB85CAF0D0D1D08F22438F0122538FFE2287
:00000001FF
