:2000000012007B12010075470075B00075C80075920075360C7537187548007521007522B6
:2000200000752300752400752500752600752700752800752900752A00752B00752C00752E
:200040002D00752E00752F0075392375B00F852033E5335401F534E5A05401B53408C2B676
:2000600012012902004BD2B612012930A005D200020075C2008520C802004BC08F758F0442
:20008000C0B275B2007586FF75B202758040758660D0B2D08FC08F758F04C0B275B20075CE
:2000A00091FF75B202759030759100D0B2D08FC08F758F04C0D175D10075CA9075CE0075B6
:2000C000CC4075D10675CD01D0D1D08FC08F758F04C0B275B20075B1FFD0B2D08FC08F75CB
:2000E0008F04C0B275B20075C9FFD0B2D08FC08F758F04C0B275B2007593FFD0B2D08F22BC
:2001000022C0E0C0D075E01AD5E0FDD0D0D0E022C0E0C0D0C0F075F032120129D5F0FAD5B3
:20012000E0F4D0F0D0D0D0E022C0E0C0D075E064120101D5E0FAD0D0D0E022C08F758F0444
:20014000C0D175D106F5D275D1000000E5CB20E0FB75D102E5CB85CAF0D0D1D08F22438FDF
:060160000122538FFE2274
:00000001FF
