:2000000075817F12016D1201D253901F75360C753718753500754400752100752200752361
:2000200000752400752500752600752700752800752900752A00752B00752C00752D007524
:200040002E00752F0075B00F852FC8852033E5335401F534E5A05401B5340302008930A08F
:200060001A754601D20079207A00120230794B7A147B407C0012024F020089C2007401B51E
:20008000460779017A00120230E5335402F534E5A05402B5340302004530A115D2017546C2
:2000A0000275350079207A001202301200C2020045C2017402B5468D79017A001202300227
:2000C000004590016BE53523F53593F9E535A393F87F107E007D007C0012039B8F6F8E6EF4
:2000E0008D6D8C6C8B6B8A6A8969886875670075660075650075640075630E7562E675615F
:20010000B2756080120286A958E559543F4440FAE55954C02323F54EE55A543F2323254E88
:20012000FBE55A54C02323F54EE55B2323543C4440254EFCD2947F08E9339293C292D292F9
:20014000DFF77F08EA339293C292D292DFF77F08EB339293C292D292DFF77F08EC3392934F
:20016000C292D292DFF7C294C29322113FC08F758F04C0B275B2007586FF75B2027580408C
:2001800075866075B2007591FF75D10075CAB075CE0A75CC8075D10675CC0175B20075B1BA
:2001A000FF75B20075C9FF75B2007593FFD0B2D08F22C08F758F0475D10675CB8075D10002
:2001C0000000E5CB20E0FB75D102E5CB85CAF0D08F2222C0E0C0D075E01AD5E0FDD0D0D0D9
:2001E000E022C0E0C0D0C0F075F0321201FBD5F0FAD5E0F4D0F0D0D0D0E022C0E0C0D07539
:20020000E0641201D3D5E0FAD0D0D0E022C08F758F04C0D175D106F5D275D1000000E5CBA2
:2002200020E0FB75D102E5CB85CAF0D0D1D08F22D2947F08E9339293C292D292DFF77F0827
:20024000EA339293C292D292DFF7C294C29322D2947F08E9339293C292D292DFF77F08EAD4
:20026000339293C292D292DFF77F08EB339293C292D292DFF77F08EC339293C292D292DFDE
:20028000F7C294C29322C0E0C0D0C0F0C070C071C072C073C074C075C076C07775570075DD
:2002A000560075550075540075530075520075510075500075F040E56833F568E56933F543
:2002C00069E56A33F56AE56B33F56BE56C33F56CE56D33F56DE56E33F56EE56F33F56FE56C
:2002E0005033F550E55133F551E55233F552E55333F553E55433F554E55533F555E5563349
:20030000F556E55733F557C3E5509560F570E5519561F571E5529562F572E5539563F573C6
:20032000E5549564F574E5559565F575E5569566F576E5579567F577401885775785765643
:20034000857555857454857353857252857151857050B3E55833F558E55933F559E55A3340
:20036000F55AE55B33F55BE55C33F55CE55D33F55DE55E33F55EE55F33F55FD5F00302037E
:20038000840202B7D077D076D075D074D073D072D071D070D0F0D0D0D0E022C0E0C0D0C0E0
:2003A00070C071C072C073C074C075C076C077C078C079C07AC07BC07C75700075710075FF
:2003C0007200757300757400757500757600757700757800757900757A00757B00757C204E
:2003E000EB13FBEA13FAE913F9E813F8502CEC2574F574ED3575F575EE3576F576EF35771B
:20040000F577E5703578F578E5713579F579E572357AF57AE573357BF57BC3EC33FCED33A4
:20042000FDEE33FEEF33FFE57033F570E57133F571E57233F572E57333F573D57CA2A874B0
:20044000A975AA76AB77AC78AD79AE7AAF7BD07CD07BD07AD079D078D077D076D075D07418
:15046000D073D072D071D070D0D0D0E022438F0122538FFE2218
:00000001FF
