:2000000075817F12004253901F852033E5335401F534E5A05401B5340302000930A017D21D
:200020000079207A00120105797F7AFF7B407C00120124020009C20079017A0012010502DB
:200040000009C08F758F04C0B275B2007586FF75B20275804075866075B2007591FF75D182
:200060000075CAB075CE0A75CC8075D10675CC0175B20075B1FF75B20075C9FF75B20075A9
:2000800093FFD0B2D08F22C08F758F0475D10675CB8075D1000000E5CB20E0FB75D102E54A
:2000A000CB85CAF0D08F2222C0E0C0D075E01AD5E0FDD0D0D0E022C0E0C0D0C0F075F03259
:2000C0001200D0D5F0FAD5E0F4D0F0D0D0D0E022C0E0C0D075E0641200A8D5E0FAD0D0D0E2
:2000E000E022C08F758F04C0D175D106F5D275D1000000E5CB20E0FB75D102E5CB85CAF0DB
:20010000D0D1D08F22D2947F08E9339293C292D292DFF77F08EA339293C292D292DFF7C2E8
:2001200094C29322D2947F08E9339293C292D292DFF77F08EA339293C292D292DFF77F081A
:20014000EB339293C292D292DFF77F08EC339293C292D292DFF7C294C29322438F01225360
:030160008FFE22ED
:00000001FF
