:2000000075817F12030C12037E12037D75360C753718753500754400754300752100752262
:2000200000752300752400752500752600752700752800752900752A00752B00752C00752E
:200040002D00752E00752F0075B0008520C878071203B3D8FB852033E5335401F534E5A08D
:200060005401B5340302009C75350C30A01BE54304B404027400F54385354653901F439099
:2000800000120475D20002009CC200754300E535B5460953901F4390001203E8E53354028D
:2000A000F534E5A05402B534030200D375350D30A11185354653901F439000120475D201AF
:2000C0000200D3C201E535B5460953901F4390001203E8E5335404F534E5A05404B5340336
:2000E00002010A75350E30A21185354653901F439000120475D20202010AC202E535B5463E
:200100000953901F4390001203E8E5335408F534E5A05408B5340302014175350F30A311B9
:2001200085354653901F439000120475D203020141C203E535B5460953901F439000120379
:20014000E8E5335410F534E5A05410B5340302017875351030A41185354653901F4390004E
:20016000120475D204020178C204E535B5460953901F4390001203E8E5335420F534E5A0B3
:200180005420B534030201AF75351130A51185354653901F439000120475D2050201AFC201
:2001A00005E535B5460953901F4390001203E875B0118521C878071203B3D8FB852133E5CE
:2001C000335401F534E5A05401B534030201F675351230A01185354753901F439020120406
:2001E00075D2080201F6C208E535B5470953901F4390201203E8E5335402F534E5A054026A
:20020000B5340302022D75351330A11185354753901F439020120475D20902022DC209E5E5
:2002200035B5470953901F4390201203E8E5335404F534E5A05404B534030202647535140A
:2002400030A21185354753901F439020120475D20A020264C20AE535B547D253901F43906D
:20026000201203E8E5335408F534E5A05408B5340302029B75351530A31185354753901FB2
:20028000439020120475D20B02029BC20BE535B5470953901F4390201203E8E5335410F515
:2002A00034E5A05410B534030202D275351630A41185354753901F439020120475D20C0259
:2002C00002D2C20CE535B5470953901F4390201203E8E5335420F534E5A05420B5340302CF
:2002E000030975351730A51185354753901F439020120475D20D020309C20DE535B54709EF
:2003000053901F4390201203E8020048C08F758F04C0B275B2007586FF75B20275804075E4
:20032000866075B2007591FF75D10075CAB075CE0A75CC8075D10675CC0175B20175A0009D
:2003400075A1FF75A10075B20075B1FF75B20075C9FF75B2007593FFD0B2D08F22C08F75CD
:200360008F0475D10675CB8075D1000000E5CB20E0FB75D102E5CB85CAF0D08F2222539030
:200380001F1203E84390201203E822C0E0C0D075E01AD5E0FDD0D0D0E022C0E0C0D0C0F08C
:2003A00075F0321203B3D5F0FAD5E0F4D0F0D0D0D0E022C0E0C0D075E06412038BD5E0FA0C
:2003C000D0D0D0E022C08F758F04C0D175D106F5D275D1000000E5CB20E0FB75D102E5CBC7
:2003E00085CAF0D0D1D08F22D2947F087401339293C292D292DFF77F087400339293C292AD
:20040000D292DFF7C294C29322D2947F08E9339293C292D292DFF77F08EA339293C292D22A
:2004200092DFF77F08EB339293C292D292DFF77F08EC339293C292D292DFF7C294C29322D6
:20044000740074462544F8A635E54403030353901F42900544534401227400E535B5460799
:2004600053901F43900022B5470753901F4390202212037E22D2947F087420339293C29289
:20048000D292DFF77F08E543339293C292D292DFF7C294C2939004B3E5352323F53593F985
:2004A000E535A393FAE535A393FBE535A393FC12040922457C400045CF40004628400046D1
:2004C00086400046EA40004753400047C140004837400048B54000493A400049C640004A6C
:2004E0005B40004AF940004B9F40004C5140004D0C40004DD340004EA640004F8440005047
:20050000704000516B400052744000538D400054B6400055F240005740400058A240005ACD
:200520001940005BA640005D4B40005F09400060E1400062D6400064E94000671A400069E1
:200540006D40006BDF40006E794000713E4000742D4000774840007A8D40007E094000411F
:20056000BA400145AB400149D240014E2F400152D6400157C94001C0E0C0D0C0F0C070C09B
:2005800071C072C073C074C075C076C0777557007556007555007554007553007552007581
:2005A000510075500075F040E56833F568E56933F569E56A33F56AE56B33F56BE56C33F587
:2005C0006CE56D33F56DE56E33F56EE56F33F56FE55033F550E55133F551E55233F552E502
:2005E0005333F553E55433F554E55533F555E55633F556E55733F557C3E5509560F570E516
:20060000519561F571E5529562F572E5539563F573E5549564F574E5559565F575E55695F7
:2006200066F576E5579567F5774018857757857656857555857454857353857252857151D2
:20064000857050B3E55833F558E55933F559E55A33F55AE55B33F55BE55C33F55CE55D3368
:20066000F55DE55E33F55EE55F33F55FD5F0030206750205A8D077D076D075D074D073D077
:2006800072D071D070D0F0D0D0D0E022C0E0C0D0C070C071C072C073C074C075C076C07769
:2006A000C078C079C07AC07BC07C757000757100757200757300757400757500757600754B
:2006C0007700757800757900757A00757B00757C20EB13FBEA13FAE913F9E813F8502CEC98
:2006E0002574F574ED3575F575EE3576F576EF3577F577E5703578F578E5713579F579E526
:2007000072357AF57AE573357BF57BC3EC33FCED33FDEE33FEEF33FFE57033F570E5713320
:20072000F571E57233F572E57333F573D57CA2A874A975AA76AB77AC78AD79AE7AAF7BD094
:200740007CD07BD07AD079D078D077D076D075D074D073D072D071D070D0D0D0E022438F97
:060760000122538FFE226E
:00000001FF
