:20000000C08F758F04C0B275B2007586FF75B20275804075866075B2007591FF75D1007556
:20002000CAB075CE0A75CC8075D10675CC0175B20075B1FF75B20075C9FF75B2007593FFCC
:20004000D0B2D08F22C08F758F0475D10675CB8075D1000000E5CB20E0FB75D102E5CB85CC
:20006000CAF0D08F222253901F1200D04390201200D022C0E0C0D075E01AD5E0FDD0D0D087
:20008000E022C0E0C0D0C0F075F03212009BD5F0FAD5E0F4D0F0D0D0D0E022C0E0C0D075FB
:2000A000E064120073D5E0FAD0D0D0E022C08F758F04C0D175D106F5D275D1000000E5CB65
:2000C00020E0FB75D102E5CB85CAF0D0D1D08F22D2947F087401339293C292D292DFF77F05
:2000E000087400339293C292D292DFF7C294C29322D2947F08E9339293C292D292DFF77F96
:2001000008EA339293C292D292DFF77F08EB339293C292D292DFF77F08EC339293C292D2BE
:2001200092DFF7C294C2932274462544F8A635E544030303429023232304B40203754400B1
:2001400022E535B5460753901F43900022B5470753901F4390202212006622D2947F087455
:2001600020339293C292D292DFF77F087400339293C292D292DFF7C294C293900199E535A9
:200180002323F53593F9E535A393FAE535A393FBE535A393FC1200F122457C400045CF4008
:2001A00000462840004686400046EA40004753400047C140004837400048B54000493A4034
:2001C0000049C640004A5B40004AF940004B9F40004C5140004D0C40004DD340004EA64034
:2001E000004F84400050704000516B400052744000538D400054B6400055F2400057404022
:200200000058A240005A1940005BA640005D4B40005F09400060E1400062D6400064E9409A
:2002200000671A4000696D40006BDF40006E794000713E4000742D4000774840007A8D4020
:20024000007E09400041BA400145AB400149D240014E2F400152D6400157C94001C0E0C026
:20026000D0C0F0C070C071C072C073C074C075C076C07775570075560075550075540075C3
:20028000530075520075510075500075F040E56833F568E56933F569E56A33F56AE56B33F4
:2002A000F56BE56C33F56CE56D33F56DE56E33F56EE56F33F56FE55033F550E55133F551E2
:2002C000E55233F552E55333F553E55433F554E55533F555E55633F556E55733F557C3E532
:2002E000509560F570E5519561F571E5529562F572E5539563F573E5549564F574E555952B
:2003000065F575E5569566F576E5579567F5774018857757857656857555857454857353E6
:20032000857252857151857050B3E55833F558E55933F559E55A33F55AE55B33F55BE55CF4
:2003400033F55CE55D33F55DE55E33F55EE55F33F55FD5F00302035B02028ED077D076D0A7
:2003600075D074D073D072D071D070D0F0D0D0D0E022C0E0C0D0C070C071C072C073C07462
:20038000C075C076C077C078C079C07AC07BC07C75700075710075720075730075740075A1
:2003A0007500757600757700757800757900757A00757B00757C20EB13FBEA13FAE913F941
:2003C000E813F8502CEC2574F574ED3575F575EE3576F576EF3577F577E5703578F578E560
:2003E000713579F579E572357AF57AE573357BF57BC3EC33FCED33FDEE33FEEF33FFE570F3
:2004000033F570E57133F571E57233F572E57333F573D57CA2A874A975AA76AB77AC78AD31
:2004200079AE7AAF7BD07CD07BD07AD079D078D077D076D075D074D073D072D071D070D093
:0C044000D0D0E022438F0122538FFE2217
:00000001FF
