:2000000075817F1200A412010975360C75371875350075440075210075220075230075245D
:2000200000752500752600752700752800752900752A00752B00752C00752D00752E00751A
:200040002F0075900075B00F852FC8852033E5335401F534E5A05401B5340302004530A071
:2000600012D20079207A0012016775350012007F020045C20079017A0012016702004574A2
:2000800000C390009493F9A393FAA393FBA393FC120186224DD340007FFF40007FFF4001C2
:2000A0007FFF4003C08F758F04C0B275B2007586FF75B20275804075866075B2007591FFB0
:2000C00075D10075CAB075CE0A75CC8075D10675CC0175B20075B1FF75B20075C9FF75B278
:2000E000007593FFD0B2D08F22C08F758F0475D10675CB8075D1000000E5CB20E0FB75D15C
:2001000002E5CB85CAF0D08F2222C0E0C0D075E01AD5E0FDD0D0D0E022C0E0C0D0C0F07533
:20012000F032120132D5F0FAD5E0F4D0F0D0D0D0E022C0E0C0D075E06412010AD5E0FAD039
:20014000D0D0E022C08F758F04C0D175D106F5D275D1000000E5CB20E0FB75D102E5CB8594
:20016000CAF0D0D1D08F22D2947F08E9339293C292D292DFF77F08EA339293C292D292DF87
:20018000F7C294C29322D2947F08E9339293C292D292DFF77F08EA339293C292D292DFF788
:2001A0007F08EB339293C292D292DFF77F08EC339293C292D292DFF7C294C29322C0E0C061
:2001C000D0C0F0C070C071C072C073C074C075C076C0777557007556007555007554007564
:2001E000530075520075510075500075F040E56833F568E56933F569E56A33F56AE56B3395
:20020000F56BE56C33F56CE56D33F56DE56E33F56EE56F33F56FE55033F550E55133F55182
:20022000E55233F552E55333F553E55433F554E55533F555E55633F556E55733F557C3E5D2
:20024000509560F570E5519561F571E5529562F572E5539563F573E5549564F574E55595CB
:2002600065F575E5569566F576E5579567F577401885775785765685755585745485735387
:20028000857252857151857050B3E55833F558E55933F559E55A33F55AE55B33F55BE55C95
:2002A00033F55CE55D33F55DE55E33F55EE55F33F55FD5F0030202BB0201EED077D076D08A
:2002C00075D074D073D072D071D070D0F0D0D0D0E022C0E0C0D0C070C071C072C073C07403
:2002E000C075C076C077C078C079C07AC07BC07C7570007571007572007573007574007542
:200300007500757600757700757800757900757A00757B00757C20EB13FBEA13FAE913F9E1
:20032000E813F8502CEC2574F574ED3575F575EE3576F576EF3577F577E5703578F578E500
:20034000713579F579E572357AF57AE573357BF57BC3EC33FCED33FDEE33FEEF33FFE57093
:2003600033F570E57133F571E57233F572E57333F573D57CA2A874A975AA76AB77AC78ADD2
:2003800079AE7AAF7BD07CD07BD07AD079D078D077D076D075D074D073D072D071D070D034
:0C03A000D0D0E022438F0122538FFE22B8
:00000001FF
