:20000000C08F758F04C0B275B20143A00F43A10F75B20053A1F0D0B2D08F22C0E0C0D0C00C
:20002000F075F032120034D5F0FAD5E0F4D0F0D0D0D0E022C0E0C0D075E064120046D5E063
:20004000FAD0D0D0E022C0E0C0D075E01AD5E0FDD0D0D0E022C08F758F04C0B275B200750C
:20006000B1FFD0B2D08F22C08F758F04C0D175D106F5D275D1000000E5CB20E0FB75D10299
:20008000E5CB85CAF0D0D1D08F22C08F758F04C0B275B2007586FF75B202758040758660AC
:2000A000D0B2D08FC08F758F04C0B275B2007591FF75B202759030759100D0B2D08FC08FD6
:2000C000758F04C0D175D10075CA9075CE0075CC4075D10675CD01D0D1D08FC08F758F04C8
:2000E000C0B275B20075B1FFD0B2D08FC08F758F04C0B275B20075C9FFD0B2D08FC08F758F
:200100008F04C0B275B2007593FFD0B2D08F22759850758920438780758DF843B30143BBF5
:2001200003D28E2253AB7F75AA7775AF0075AE0B43A90175ABC02275AC1175AC0075AC1062
:2001400075AC0022E535253994182537940D2536F535227538908538992099FD85359920D8
:2001600099FD75997F2099FD227538808538992099FD8535992099FD7599002099FD2275E7
:2001800038B08538992099FD8535992099FD853A992099FD22207E16E5480303034410F5FF
:1601A00090759000E54804B40803F5482222438F0122538FFE224C
:00000001FF
